:10FC0000112494B714BE892F8D7011F0892F0BD158
:10FC100085E08093810082E08093C00088E180933A
:10FC2000C10086E08093C20080E18093C4008EE032
:10FC3000E4D03F9A86E020E33CEF91E030938500EA
:10FC40002093840096BBB09BFECF379AA895815035
:10FC5000A9F7CC24DD2443E0742EAA24A39435E034
:10FC6000932E21E1822EBDD0813471F4BAD0182FA9
:10FC7000CAD0123811F482E005C0113811F486E0C0
:10FC800001C083E0A6D0A2C0823411F484E103C095
:10FC9000853419F485E0BFD099C0853579F4A1D0B9
:10FCA000E82EFF249ED0082F10E0102F00270E29E9
:10FCB0001F29000F111FA7D0680188C0863521F4C5
:10FCC00084E0A9D080E0DECF843609F051C089D02D
:10FCD00090E0182F002785D090E0082B192B81D0B9
:10FCE000B82EE801E12CA1E0FA2E7BD0F701819338
:10FCF0007F012197D1F787D0F5E4BF1689F4E6019B
:10FD0000E12CF1E0FF2E08C0CE012196F7016191B0
:10FD10007F0197D00150104001151105A9F756C079
:10FD2000F60177BEE89507B600FCFDCFB801A60145
:10FD3000A0E0B1E02C9130E011968C91119790E009
:10FD4000982F8827822B932B1296FA010C01A7BEBD
:10FD5000E89511244E5F5F4F6250704059F7F601ED
:10FD600097BEE89507B600FCFDCF87BEE8952EC08C
:10FD70008437F1F436D090E0D82FCC2732D090E001
:10FD8000C82BD92B2ED0182F3ED0153449F486011C
:10FD9000C8010F5F1F4F4DD01CD02197C9F716C067
:10FDA0008601F80185918F0114D02197D1F70EC0FB
:10FDB000853739F428D08EE10CD086E90AD08AE064
:10FDC00061CF813511F488E018D01DD080E101D0D9
:10FDD0004ACF982F8091C00085FFFCCF9093C6003A
:10FDE00008958091C00087FFFCCF8091C00084FD02
:10FDF00001C0A8958091C6000895E0E6F0E098E182
:10FE0000908380830895EDDF803219F088E0F5DF7C
:10FE1000FFCF84E1DECF1F93182FE3DF1150E9F706
:10FE2000F2DF1F910895282E80E0E7DFE0E0FF2752
:10FE30000994F999FECF92BD81BDF89A992780B5B2
:10FE40000895262FF999FECF1FBA92BD81BD20BD1E
:0EFE50000FB6F894FA9AF99A0FBE019608952B
:02FFFE000206F9
:040000030000FC00FD
:00000001FF
